:100000000C9432000C9474010C944F000C944F002B
:100010000C944F000C94D0010C944F000C944F00A2
:100020000C944F000C944F000C944F000C944F0014
:100030000C944F000C944F000C944F000C944F0004
:100040000C944F000C944F000C944F000C944F00F4
:100050000C944F00220327032E0335033C03430374
:100060004A03510311241FBECFE5D8E0DEBFCDBF48
:1000700010E0A0E6B0E0ECE0FBE002C005900D92DD
:10008000A036B107D9F720E0A0E6B0E001C01D928C
:10009000A737B207E1F70E942E020C9484050C9456
:1000A00000000E94E10180E00E94A50081E00E9422
:1000B000A50080E00E94300181E00E943001089597
:1000C0000E94EE010E94FF016D3330F00E948A0011
:1000D0008FE50E94ED00089581EE860F8D3160F46A
:1000E0000E949C0082E30E94ED0064E670E080E0E4
:1000F00090E00E94890308956E3158F48EE10E94C9
:10010000ED000E94930064E670E080E090E00E94C1
:100110008903089561E080E00E94F70061E081E0DA
:100120000E94F700089560E080E00E94F70060E020
:1001300081E00E94F700089560E080E00E94F700EF
:1001400061E081E00E94F7000895AF92CF92DF92C4
:10015000EF920F93CF93C82FA12CC12CD12CE12C5F
:1001600000E020E030E045E060E882E10E94AB0280
:10017000CC2319F0C130B1F029C04FEF61E080E02D
:100180000E9433024FEF64E080E00E94330240E0BF
:1001900061E080E00E94730240E064E080E00E9441
:1001A000730214C04FEF62E080E00E9433024FEF11
:1001B00068E080E00E94330240E062E080E00E945C
:1001C000730240E068E080E00E947302CF910F91DB
:1001D000EF90DF90CF90AF900895853630F464EFC4
:1001E00071E00E94600381E0089580E00895882313
:1001F00019F08130D1F032C0662361F0613071F5C1
:1002000041E080E00E94730240E064E080E00E94F0
:10021000730224C040E061E080E00E94730241E08C
:1002200064E080E00E94730219C0662369F06130C7
:10023000A9F441E062E080E00E94730240E068E0DF
:1002400080E00E9473020AC040E062E080E00E9409
:10025000730241E068E080E00E94730281E008954B
:10026000CF93C82F82E30E94ED000E94030361E058
:100270008C2F0E94F700CF910895EF920F938BB7C8
:1002800080648BBF85B7816085BF85B78D7F85BF53
:100290006894EE24E6F800E020E041E060E080E0D1
:1002A0000E940C038FB780688FBF81E00F91EF90A1
:1002B0000895FC01709160006091610050916200AE
:1002C0004091630030916400209165009091660038
:1002D00080916700708361835283438334832583D5
:1002E0009683878381E008951F920F920FB60F9235
:1002F00011242F933F934F935F936F937F938F932B
:100300009F93AF93BF93CF93DF93EF93FF9380912E
:100310006900811109C014BC0E945A031092680040
:1003200081E08093690029C080916900813029F5BE
:10033000A091680084B5B0E0BA2FAA27A80FB11D1C
:100340002EE330E00E947205DC01CB018093600057
:1003500090936100A0936200B093630010926400D8
:100360001092650010926600109267000E940803C8
:100370001092680014BC10926900FF91EF91DF9118
:10038000CF91BF91AF919F918F917F916F915F912D
:100390004F913F912F910F900FBE0F901F90189586
:1003A0001F920F920FB60F9211248F9380916800C5
:1003B0008F5F809368008F910F900FBE0F901F90FA
:1003C00018950E943D014FEF60E880E00E943302E3
:1003D00040E064E083E00E943302089541E060E879
:1003E00080E00E9473026AE070E080E090E00E948A
:1003F000890340E060E880E00E9473020895CF9393
:10040000DF93CDB7DEB728970FB6F894DEBF0FBEE7
:10041000CDBFCE0101960E94590129813A814B81BD
:100420005C816D817E818F8198850E943F0428E2E6
:100430003BE64EE65EE40E949E0320E03CEF45E88A
:1004400056E40E94CE040E94100428960FB6F89439
:10045000DEBF0FBECDBFDF91CF9108950E94510046
:100460000E946000FDCF8130A1F028F08230F9F0C9
:10047000833059F10895442319F04F3F31F0089526
:100480008AB3609568236ABB08958AB3682B6ABBF8
:100490000895442319F04F3F31F0089587B36095D4
:1004A000682367BB089587B3682B67BB089544230F
:1004B00019F04F3F31F0089584B36095682364BB11
:1004C000089584B3682B64BB0895442319F04F3F0B
:1004D00031F0089581B36095682361BB089581B3BD
:1004E000682B61BB08954423D1F0413099F58130E8
:1004F00051F028F0823059F0833069F008958BB3C1
:10050000682B6BBB089588B3682B68BB089585B3CF
:10051000682B65BB089582B3682B62BB0895813058
:1005200059F028F0823069F0833081F008958BB360
:10053000609568236BBB089588B36095682368BB9A
:10054000089585B36095682365BB089582B360956F
:10055000682362BB0895AF92EF920F93CF93C42F9D
:100560000ABDEBBC9FB5382F3370932B9FBD9FB551
:10057000692B6FBD9EB58871892B8EBD2CBD4FEF49
:1005800060E283E00E94330289B7A82AA9BEC09323
:100590006B00C230C1F028F4CC2349F0C13061F0C7
:1005A0002DC0C430F1F0B0F0C53011F127C0109269
:1005B00073001092720022C081E090E0909373006B
:1005C000809372001BC088E090E09093730080934A
:1005D000720014C080E490E09093730080937200E6
:1005E0000DC080E091E0909373008093720006C08C
:1005F00080E094E09093730080937200CF910F910C
:10060000EF90AF9008958EB5887F85608EBD089578
:100610008EB5887F8EBD0895EF920F9395B5692BA7
:10062000862B85BD24BD03BD89B7E82AE9BE40936A
:100630006A0050E048305105D0F5FA01E65DFF4F01
:100640000C945D05109271001092700030C081E032
:1006500090E0909371008093700029C088E090E052
:10066000909371008093700022C080E290E090939C
:100670007100809370001BC080E490E09093710043
:100680008093700014C080E890E090937100809394
:1006900070000DC080E091E0909371008093700035
:1006A00006C080E094E090937100809370000F91F9
:1006B000EF90089590916A0085B5892B85BD0895C6
:1006C000CF93C82F20E030E0362F330F330F330F96
:1006D00040E050E060E074E284EF90E00E943B056F
:1006E000522F432F822F932FC89F9001C99F300D07
:1006F00011243695279536952795ABE7B4E10E94EE
:1007000063059695879556BD47BD8ABD9BBDCF9124
:1007100008959B01AC01A0E8BEE30E94790516167E
:100720001706180619064CF46950710981099109D8
:100730001616170618061906BCF308950E94B20390
:100740000C9494040E948D0458F00E94860440F09A
:1007500029F45F3F29F00C947D0451110C94C804D6
:100760000C9483040E94A50468F39923B1F35523E4
:1007700091F3951B550BBB27AA27621773078407B4
:1007800038F09F5F5F4F220F331F441FAA1FA9F34A
:1007900035D00E2E3AF0E0E832D091505040E69538
:1007A000001CCAF72BD0FE2F29D0660F771F881F99
:1007B000BB1F261737074807AB07B0E809F0BB0B8C
:1007C000802DBF01FF2793585F4F3AF09E3F5105A0
:1007D00078F00C947D040C94C8045F3FE4F3983ED9
:1007E000D4F3869577956795B795F7959F5FC9F789
:1007F000880F911D9695879597F90895E1E0660F0A
:10080000771F881FBB1F621773078407BA0720F082
:10081000621B730B840BBA0BEE1F88F7E0950895EB
:100820000E94AD0488F09F5798F0B92F9927B751CF
:10083000B0F0E1F0660F771F881F991F1AF0BA9584
:10084000C9F714C0B13091F00E94C704B1E0089517
:100850000C94C704672F782F8827B85F39F0B93F09
:10086000CCF3869577956795B395D9F73EF4909537
:100870008095709561957F4F8F4F9F4F0895E894B5
:10088000F92F96EBFF2381F0121613061406440B82
:100890009395F69587957795679557954040FF23F3
:1008A000B9F71BC099270895882351F49850D2F7BF
:1008B000872B762F652F542F432F322F20E0B1F353
:1008C000121613061406440B88233AF09A95440F27
:1008D000551F661F771F881FCAF755234AF4440F18
:1008E000551F11F460FF04C06F5F7F4F8F4F9F4F04
:1008F000880F9695879597F9089597F99F6780E8EF
:1009000070E060E008959FEF80EC089500240A9461
:100910001616170618060906089500240A941216DA
:100920001306140605060895092E0394000C11F40D
:10093000882352F0BB0F40F4BF2B11F460FF04C0BA
:100940006F5F7F4F8F4F9F4F089557FD9058440F13
:10095000551F59F05F3F71F04795880F97FB991F1E
:1009600061F09F3F79F087950895121613061406DB
:10097000551FF2CF4695F1DF08C016161706180668
:10098000991FF1CF86957105610508940895E89443
:10099000BB2766277727CB0197F908950E94E104CA
:1009A0000C9494040E94860438F00E948D0420F078
:1009B000952311F00C947D040C94830411240C9461
:1009C000C8040E94A50470F3959FC1F3950F50E0F1
:1009D000551F629FF001729FBB27F00DB11D639FF1
:1009E000AA27F00DB11DAA1F649F6627B00DA11D97
:1009F000661F829F2227B00DA11D621F739FB00D3D
:100A0000A11D621F839FA00D611D221F749F3327AC
:100A1000A00D611D231F849F600D211D822F762F45
:100A20006A2F11249F5750409AF0F1F088234AF022
:100A3000EE0FFF1FBB1F661F771F881F915050408E
:100A4000A9F79E3F510580F00C947D040C94C804D6
:100A50005F3FE4F3983ED4F3869577956795B79515
:100A6000F795E7959F5FC1F7FE2B880F911D96952F
:100A7000879597F90895A1E21A2EAA1BBB1BFD01C9
:100A80000DC0AA1FBB1FEE1FFF1FA217B307E4076D
:100A9000F50720F0A21BB30BE40BF50B661F771FC5
:100AA000881F991F1A9469F76095709580959095A5
:100AB0009B01AC01BD01CF010895EE0FFF1F059012
:100AC000F491E02D0994A29FB001B39FC001A39FB0
:100AD000700D811D1124911DB29F700D811D112477
:100AE000911D08950E946305B7FF0895821B930B23
:100AF00008950E946305A59F900DB49F900DA49F3B
:0C0B0000800D911D11240895F894FFCF82
:00000001FF
