:100000000C942A000C940D040C9447000C944700A7
:100010000C9447000C9447000C9447000C94470044
:100020000C9447000C94F30E0C9447000C9482043B
:100030000C9447000C9447000C9447000C94470024
:100040000C9447000C9447000C9447000C94470014
:100050000C94470011241FBECFE5D8E0DEBFCDBF12
:1000600010E0A0E6B0E0E6E9F3E202C005900D92F0
:10007000A438B107D9F720E0A4E8B0E001C01D9290
:10008000A03CB207E1F70E94C3000C94C9110C9484
:100090000000CF93DF93CDB7DEB780E00E94DE0093
:1000A00081E00E94DE0080E00E94870181E00E94E2
:1000B00087010000DF91CF910895CF93DF93CDB7F3
:1000C000DEB780E10E946403882311F00E94730070
:1000D00084E00E946403882311F00E9483000000E2
:1000E000DF91CF910895CF93DF93CDB7DEB761E075
:1000F00080E00E94340161E081E00E943401000050
:10010000DF91CF910895CF93DF93CDB7DEB760E055
:1001100080E00E94340160E081E00E943401000030
:10012000DF91CF910895CF93DF93CDB7DEB70E94D3
:1001300017020E9452030E9449000E949C04809171
:1001400085008F5F8093850080918500843039F42D
:1001500081E08093840083E990E00E947E070000A4
:10016000DF91CF910895CF93DF93CDB7DEB7809124
:100170008400813021F40E945D000E942705000068
:10018000DF91CF910895CF93DF93CDB7DEB70E9473
:10019000710542E050E065E083E990E00E94F105DE
:1001A00044E650E063E083EB90E00E94F1050E949A
:1001B000850680E090E0DF91CF910895CF93DF93A3
:1001C0001F92CDB7DEB7898382E00E94180B80E5CD
:1001D0000E944A0B8981882F90E0009719F00197BF
:1001E000B1F02AC04FEF61E082E00E9429084FEF92
:1001F00064E082E00E94290840E061E082E00E9421
:10020000D50840E064E082E00E94D50815C04FEFB9
:1002100062E082E00E9429084FEF68E082E00E94DD
:10022000290840E062E082E00E94D50840E068E0F2
:1002300082E00E94D508000000000F90DF91CF916E
:100240000895CF93DF931F92CDB7DEB7898389815D
:10025000853628F489810E944A0B81E001C080E044
:100260000F90DF91CF910895CF93DF9300D0CDB75A
:10027000DEB789836A838981882F90E0009719F01F
:10028000019701F13EC08A81882F90E0009771F0BC
:10029000019709F016C041E061E082E00E94D508B4
:1002A00040E064E082E00E94D5080BC040E061E0DD
:1002B00082E00E94D50841E064E082E00E94D50817
:1002C00000001FC08A81882F90E0009771F001978D
:1002D00009F016C041E062E082E00E94D50840E0EB
:1002E00068E082E00E94D5080BC040E062E082E056
:1002F0000E94D50841E068E082E00E94D508000035
:10030000000081E00F900F90DF91CF910895CF937F
:10031000DF931F92CDB7DEB7898380E50E9421016C
:1003200061E089810E94340100000F90DF91CF913C
:100330000895CF93DF931F92CDB7DEB7898340E056
:1003400062E080E00E94D50840E064E080E00E9426
:10035000D5088981881F8827881F482F60E880E09A
:100360000E94D508898182958695869583708170D3
:10037000482F60E480E00E94D508898182958695A7
:1003800087708170482F60E280E00E94D5088981E3
:1003900082958F708170482F60E180E00E94D508BF
:1003A00041E068E080E00E94D50864E170E080E010
:1003B00090E00E94370F40E068E080E00E94D5089E
:1003C00089818695869586958170482F60E880E0C2
:1003D0000E94D5088981869586958170482F60E4B2
:1003E00080E00E94D508898186958170482F60E25F
:1003F00080E00E94D50889818170482F60E180E00B
:100400000E94D50841E068E080E00E94D50864E1E0
:1004100070E080E090E00E94370F40E068E080E00C
:100420000E94D50800000F90DF91CF910895CF93DF
:10043000DF931F92CDB7DEB71982809186008823A3
:1004400009F042C080918700882F90E081309105AB
:10045000C9F0823091051CF4892B39F031C082300B
:100460009105C9F0039701F12BC06FEF80E00E9466
:10047000F20782E00E949901809187008F5F80934C
:10048000870024C088E20E949901809187008F5FD5
:10049000809387001BC08EE00E94990180918700A5
:1004A0008F5F8093870012C086E00E94990181E0EF
:1004B00080938600809187008F5F8093870006C0BD
:1004C00082E08983000002C083E0898389810F90E4
:1004D000DF91CF910895CF93DF931F92CDB7DEB711
:1004E000898380918600813009F073C041E062E029
:1004F00080E00E94D50840E064E080E00E94D508DA
:100500008981881F8827881F482F60E880E00E9423
:10051000D508898182958695869583708170482F4C
:1005200060E480E00E94D508898182958695877075
:100530008170482F60E280E00E94D5088981829511
:100540008F708170482F60E180E00E94D50841E003
:1005500068E080E00E94D50864E170E080E090E00F
:100560000E94370F40E068E080E00E94D508898152
:100570008695869586958170482F60E880E00E9478
:10058000D5088981869586958170482F60E480E042
:100590000E94D508898186958170482F60E280E0AD
:1005A0000E94D50889818170482F60E180E00E9417
:1005B000D50841E068E080E00E94D50864E170E081
:1005C00080E090E00E94370F40E068E080E00E9409
:1005D000D50800000F90DF91CF910895CF93DF935E
:1005E00000D0CDB7DEB79A838983809186008130B1
:1005F00081F580918800882F90E029813A81820FCF
:10060000931FFC0180818823F1F08091890091E0A3
:10061000980F9093890090918A00682F892F0E94EB
:100620003A0380918800882F90E029813A81820FD7
:10063000931FFC0180810E946B02809188008F5F74
:100640008093880006C01092880010928A00109251
:10065000890000000F900F90DF91CF910895CF9304
:10066000DF93CDB7DEB781E00E9499010000DF91F2
:10067000CF910895CF93DF9300D0CDB7DEB78983B4
:100680006A838981982F9295990F990F907C8A811E
:10069000890F80680E94990100000F900F90DF91F0
:1006A000CF910895CF93DF93CDB7DEB740E064E0FC
:1006B00082E00E94290840E062E081E00E9429086F
:1006C0000000DF91CF910895CF93DF9300D0CDB795
:1006D000DEB78A8319828A81882F90E08430910561
:1006E00089F1409709F05AC080918B00882F90E0E3
:1006F000009719F0019769F024C064E082E00E943D
:10070000740980938C0080918B008F5F80938B00A5
:1007100018C064E082E00E94740980938D0090917B
:100720008C0080918D00981741F480918D00898311
:1007300010928C0010928D0001C0198210928B00D3
:1007400000002CC080918E00882F90E0009719F057
:10075000019769F022C062E081E00E9474098093F1
:100760008F0080918E008F5F80938E0016C062E0B4
:1007700081E00E9474098093900090918F00809195
:100780009000981739F480919000898310928F001F
:100790001092900010928E000000000089810F904E
:1007A0000F90DF91CF910895CF93DF93CDB7DEB750
:1007B00061E086E00E94EB0983E690E00E948D0BE9
:1007C0000E94DA0981E0DF91CF910895CF93DF9302
:1007D00000D0CDB7DEB79A83898320919300309102
:1007E000940040919500509196006091970070910F
:1007F00098008091990090919A00E981FA81208374
:10080000318342835383648375838683978381E036
:100810000F900F90DF91CF9108951F920F9200904B
:100820005F000F9211240F931F932F933F934F93C9
:100830005F936F937F938F939F93AF93BF93EF9348
:10084000FF93CF93DF93CDB7DEB7809191008823DC
:1008500059F480E00E94B20E0E94CD0E10929200D8
:1008600081E08093910037C080919100813099F5AB
:1008700080919200882F90E0182F00270E94C20ECE
:10088000882F90E0800F911F9C01990F440B550B0E
:100890008DE790E0DC010E946F11DC01CB019C012F
:1008A000AD0160E070E0CB012093930030939400A1
:1008B0004093950050939600609397007093980032
:1008C0008093990090939A001092920080E00E9489
:1008D000B20E109291000000DF91CF91FF91EF9145
:1008E000BF91AF919F918F917F916F915F914F9148
:1008F0003F912F911F910F910F9000925F000F90E9
:100900001F9018951F920F9200905F000F92112474
:100910008F93CF93DF93CDB7DEB7809192008F5F37
:10092000809392000000DF91CF918F910F90009201
:100930005F000F901F901895CF93DF93CDB7DEB770
:100940000E94D4034FEF61E081E00E94290840E05B
:1009500064E083E00E9429080000DF91CF910895B0
:10096000CF93DF93CDB7DEB741E061E081E00E9435
:10097000D50864E170E080E090E00E94370F40E02D
:1009800061E081E00E94D5080000DF91CF910895D9
:10099000AF92BF92CF92DF92EF92FF920F931F938D
:1009A000CF93DF93CDB7DEB72C970FB6F894DEBFA9
:1009B0000FBECDBFCE0105960E94E603AD80BE807E
:1009C000CF80D884E984FA840B851C852A2D3B2DA1
:1009D0004C2D5D2D6E2D7F2D802F912F0E94191093
:1009E000DC01CB0128E23BE64EE65EE4BC01CD0132
:1009F0000E94780FDC01CB0120E03CEF45E856E493
:100A0000BC01CD010E94A810DC01CB01BC01CD01CD
:100A10000E94EA0FDC01CB0189839A83AB83BC83FC
:100A200089819A81AB81BC81BC01CD012C960FB626
:100A3000F894DEBF0FBECDBFDF91CF911F910F9114
:100A4000FF90EF90DF90CF90BF90AF900895CF933D
:100A5000DF93CDB7DEB72C970FB6F894DEBF0FBE8D
:100A6000CDBF0E94B0040E94C804DC01CB019A8370
:100A7000898389819A819E012D5F3F4F4AE050E032
:100A8000B9010E9489110E942F03CE0103960E9492
:100A9000EE0200002C960FB6F894DEBF0FBECDBF5D
:100AA000DF91CF910895CF93DF93CDB7DEB78091DB
:100AB000AD009091AE0001969093AE008093AD0092
:100AC0008091AD009091AE00883E9D4F31F481E061
:100AD00090E09093AE008093AD000000DF91CF9145
:100AE0000895CF93DF9300D000D000D0CDB7DEB70C
:100AF0001A8281E090E09093AE008093AD000E9456
:100B0000DA0985E590E025E530E0F90120812F78CC
:100B1000FC01208388EE93E0A0E0B0E08B839C830F
:100B2000AD83BE8383E595E00E94E00E19823DC04F
:100B30008981282F30E0C901880F991F820F931FE8
:100B4000880F991F82569F4FFC0111821082898164
:100B5000282F30E0C901880F991F820F931F880F3B
:100B6000991F83569F4FFC0110828981282F30E006
:100B7000C901880F991F820F931F880F991F8056F4
:100B80009F4FFC0110828981282F30E0C901880F16
:100B9000991F820F931F880F991F85569F4FFC0145
:100BA0001182108289818F5F89838981833008F463
:100BB000BFCF8EE690E00E948D0B8B819C81AD8132
:100BC000BE81AC01BD0181E00E94E30C00008A817E
:100BD00026960FB6F894DEBF0FBECDBFDF91CF9142
:100BE0000895CF93DF93CDB7DEB727970FB6F8946C
:100BF000DEBF0FBECDBF9C838B836D835F834E832F
:100C000019828B819C81892B09F473C01A826CC074
:100C10008A81282F30E0C901880F991F820F931F06
:100C2000880F991F85569F4FFC0180819181892BE8
:100C300009F055C08A81282F30E0C901880F991F1B
:100C4000820F931F880F991F85569F4F2B813C81E0
:100C5000FC01318320838A81282F30E0C901880F6D
:100C6000991F820F931F880F991F82569F4F2E81C5
:100C70003F81FC01318320838A81282F30E0C90124
:100C8000880F991F820F931F880F991F80569F4FBF
:100C900021E0FC0120838D81873080F48A81282F18
:100CA00030E0C901880F991F820F931F880F991F89
:100CB00083569F4F2D81FC0120830FC08A81282FEE
:100CC00030E0C901880F991F820F931F880F991F69
:100CD00083569F4F26E0FC01208319820CC083E0DD
:100CE00089838A818F5F8A838A81833008F490CFD9
:100CF00002C081E08983898127960FB6F894DEBF10
:100D00000FBECDBFDF91CF910895CF93DF9300D079
:100D10001F92CDB7DEB719828FEF8A831B8281E0E5
:100D20000E94740E198298C08981282F880F330B76
:100D3000C901880F991F820F931F880F991F805632
:100D40009F4FFC018081882F90E08130910571F0E8
:100D50008230910524F4892B09F476C07AC0823060
:100D6000910581F1039709F441C073C08B81482F2D
:100D7000880F550B8981282F880F330BC901880FE5
:100D8000991F820F931F880F991F83569F4FFC0155
:100D90008081882F90E0481759070CF057C089814F
:100DA000282F880F330BC901880F991F820F931FBB
:100DB000880F991F83569F4FFC0180818B83898107
:100DC0008A8344C08981282F880F330BC901880F7B
:100DD000991F820F931F880F991F80569F4F23E002
:100DE000FC01208389818150898333C04091AD000B
:100DF0005091AE008981282F880F330BC901880FCD
:100E0000991F820F931F880F991F82569F4FFC01D5
:100E100020813181CA01B9010E942511892BC1F4B9
:100E20008981282F880F330BC901880F991F820FE2
:100E3000931F880F991F80569F4F21E0FC0120834C
:100E400089818150898304C0000003C0000001C073
:100E5000000089818F5F8983898183300CF464CF9E
:100E60008A818823BCF18A81282F880F330BC9011E
:100E7000880F991F820F931F880F991F85569F4FC8
:100E8000FC0180819181FC0109958A81282F880FBE
:100E9000330BC901880F991F820F931F880F991F69
:100EA00085569F4FFC0180819181892B81F08A8139
:100EB000282F880F330BC901880F991F820F931FAA
:100EC000880F991F80569F4F22E0FC0120838FEFEF
:100ED0008A831B8285E590E025E530E0F9012081D9
:100EE0002068FC012083889585E590E025E530E0C9
:100EF000F90120812F77FC01208314CFCF93DF935A
:100F000000D000D0CDB7DEB79C838B8319828B8154
:100F10009C81892B09F45CC01A8255C08A81282FD4
:100F200030E0C901880F991F820F931F880F991F06
:100F300085569F4FFC01208131818B819C81281730
:100F40003907E1F58A81282F30E0C901880F991F00
:100F5000820F931F880F991F85569F4FFC011182A6
:100F600010828A81282F30E0C901880F991F820FD3
:100F7000931F880F991F82569F4FFC011182108288
:100F80008A81282F30E0C901880F991F820F931F93
:100F9000880F991F83569F4FFC0110828A81282F4A
:100FA00030E0C901880F991F820F931F880F991F86
:100FB00080569F4FFC01108219820CC082E0898309
:100FC0008A818F5F8A838A81833008F4A7CF02C029
:100FD00081E0898389810F900F900F900F90DF91AE
:100FE000CF910895CF93DF9300D0CDB7DEB789833B
:100FF0006A838981882F90E08130910591F0823059
:1010000091051CF4892B39F01EC08230910579F0CE
:10101000039799F018C08AE390E02A81FC012083AD
:1010200012C087E390E02A81FC0120830CC084E396
:1010300090E02A81FC01208306C081E390E02A81B0
:10104000FC012083000000000F900F90DF91CF91F2
:101050000895CF93DF9300D01F92CDB7DEB7898379
:101060006A834B838981882F90E08130910581F1DB
:10107000823091051CF4892B49F090C08230910593
:1010800009F448C0039709F467C088C08B81882F92
:1010900090E0009721F08F3F910571F07FC08AE3C7
:1010A00090E02AE330E0F9012081322F2A81209557
:1010B0002323FC0120830BC08AE390E02AE330E085
:1010C000F90130812A81232BFC012083000066C0B6
:1010D0008B81882F90E0009721F08F3F910571F070
:1010E0005DC087E390E027E330E0F9012081322FF3
:1010F0002A8120952323FC0120830BC087E390E005
:1011000027E330E0F90130812A81232BFC01208381
:10111000000044C08B81882F90E0009721F08F3F22
:10112000910571F03BC084E390E024E330E0F901E5
:101130002081322F2A8120952323FC0120830BC09C
:1011400084E390E024E330E0F90130812A81232B0D
:10115000FC012083000022C08B81882F90E0009743
:1011600021F08F3F910571F018C081E390E021E3F9
:1011700030E0F9012081322F2A8120952323FC01C0
:1011800020830BC081E390E021E330E0F90130815E
:101190002A81232BFC0120830000000000000F9017
:1011A0000F900F90DF91CF910895CF93DF9300D0F0
:1011B0001F92CDB7DEB789836A834B838B81882FDB
:1011C00090E0009709F442C0019709F086C0898138
:1011D000882F90E081309105B9F0823091051CF4A0
:1011E000892B39F07AC082309105C9F0039711F14B
:1011F00074C08BE390E02BE330E0F90130812A8169
:10120000232BFC01208321C088E390E028E330E019
:10121000F90130812A81232BFC01208316C085E34C
:1012200090E025E330E0F90130812A81232BFC0195
:1012300020830BC082E390E022E330E0F9013081AB
:101240002A81232BFC012083000047C08981882F3D
:1012500090E081309105C9F0823091051CF4892B12
:1012600039F03AC082309105E9F0039741F134C07A
:101270008BE390E02BE330E0F9012081322F2A81CB
:1012800020952323FC01208327C088E390E028E3F6
:1012900030E0F9012081322F2A8120952323FC019F
:1012A00020831AC085E390E025E330E0F901208136
:1012B000322F2A8120952323FC0120830DC082E355
:1012C00090E022E330E0F9012081322F2A8120953D
:1012D0002323FC0120830000000000000F900F90EA
:1012E0000F90DF91CF910895CF93DF9300D01F929D
:1012F000CDB7DEB78A836B8319828A81882F90E00D
:1013000081309105E9F0823091051CF4892B39F088
:101310004AC08230910529F10397A1F144C089E3C5
:1013200090E0FC018081882F90E02B81222F30E01B
:1013300002C0959587952A95E2F78170898333C01D
:1013400086E390E0FC018081882F90E02B81222FA2
:1013500030E002C0959587952A95E2F781708983E0
:1013600022C083E390E0FC018081882F90E02B81F4
:10137000222F30E002C0959587952A95E2F781707B
:10138000898311C080E390E0FC018081882F90E088
:101390002B81222F30E002C0959587952A95E2F7A0
:1013A00081708983000089810F900F900F90DF91E9
:1013B000CF910895CF93DF93CDB7DEB78FE590E05F
:1013C0002FE530E0F90120812068FC012083000036
:1013D000DF91CF910895CF93DF9300D0CDB7DEB7E3
:1013E00089836A838981882F90E08630910541F056
:1013F0008730910509F488C0059709F409C112C125
:101400008A81882F90E08130910549F182309105E1
:101410001CF4892B41F077C082309105E1F10397EC
:1014200009F455C070C08BE590E02BE530E0F90180
:1014300020812064FC01208385E590E025E530E0F3
:10144000F90120812E7FFC01208385E590E025E5D0
:1014500030E0F90120812D7FFC01208354C08BE511
:1014600090E02BE530E0F90120812064FC0120832D
:1014700085E590E025E530E0F90120812160FC015F
:10148000208385E590E025E530E0F90120812D7F7E
:10149000FC01208338C08BE590E02BE530E0F901BA
:1014A00020812064FC01208385E590E025E530E083
:1014B000F90120812260FC01208385E590E025E58B
:1014C00030E0F90120812E7FFC0120831CC08BE5D8
:1014D00090E02BE530E0F90120812064FC012083BD
:1014E00085E590E025E530E0F90120812260FC01EE
:1014F000208385E590E025E530E0F9012081216039
:10150000FC01208300008EC08A81882F90E081300A
:10151000910549F1823091051CF4892B41F077C087
:1015200082309105E1F1039709F455C070C08BE555
:1015300090E02BE530E0F90120812068FC01208358
:1015400085E590E025E530E0F90120812B7FFC0165
:10155000208385E590E025E530E0F9012081277FB3
:10156000FC01208354C08BE590E02BE530E0F901CD
:1015700020812068FC01208385E590E025E530E0AE
:10158000F90120812460FC01208385E590E025E5B8
:1015900030E0F9012081277FFC01208338C08BE5F2
:1015A00090E02BE530E0F90120812068FC012083E8
:1015B00085E590E025E530E0F90120812860FC0117
:1015C000208385E590E025E530E0F90120812B7F3F
:1015D000FC0120831CC08BE590E02BE530E0F90195
:1015E00020812068FC01208385E590E025E530E03E
:1015F000F90120812860FC01208385E590E025E544
:1016000030E0F90120812460FC01208300000AC041
:101610008BE590E02BE530E0F90120812062FC01B0
:101620002083000000000F900F90DF91CF9108956C
:10163000CF93DF931F92CDB7DEB789834FEF60E87A
:1016400083E00E9429088981882F90E081309105EC
:1016500051F08230910561F0892BA1F483E690E08E
:101660000E948D0B0FC08EE690E00E948D0B0AC089
:1016700089E790E00E948D0B4FEF60E883E00E94C5
:101680002908000089810E94740E00000F90DF91EC
:10169000CF910895CF93DF9300D01F92CDB7DEB7DF
:1016A0008B834091BA005091BB0020E23EE4429F00
:1016B000C001439F900D529F900D11249C0140E06A
:1016C00050E080E092E1AAE7B0E0BC01CD010E94C9
:1016D0004D11DA01C90189838981282F30E08B817E
:1016E000882F90E0289FA001299F500D389F500D12
:1016F000112424E630E0CA01B9010E943911CB015E
:101700008A8383E490E028ECFC01208300000F90A2
:101710000F900F90DF91CF910895CF93DF9300D07A
:101720001F92CDB7DEB79B838A8319828A819B8102
:10173000FC0187819085A185B2858093AF0090934D
:10174000B000A093B100B093B2008A819B81FC01EC
:101750008081882F90E08130910509F464C0823047
:10176000910509F4CAC0892B09F024C183E590E0F2
:1017700023E530E0F90140812A813B81F901218193
:10178000242BFC01208389E590E029E530E0F90174
:1017900040812A813B81F9012681242BFC01208391
:1017A00080916000882F90E082309105E9F08330CD
:1017B00091052CF4009761F0019779F031C08430E5
:1017C000910501F184309105B4F0059711F128C01D
:1017D0001092BD001092BC0023C081E090E0909375
:1017E000BD008093BC001CC088E090E09093BD00D9
:1017F0008093BC0015C080E490E09093BD0080937E
:10180000BC000EC080E091E09093BD008093BC00CE
:1018100007C080E094E09093BD008093BC0000007E
:1018200081E08983C9C08FE490E02FE430E0F901C2
:101830002081422F2A813B81F90121812370242BB1
:10184000FC0120838EE490E02EE430E0F901208159
:10185000422F2A813B81F90121812871242BFC012F
:10186000208389E590E029E530E0F90120812460BA
:10187000FC01208380916100882F90E082309105E7
:10188000E9F0833091052CF4009761F0019779F02D
:1018900031C08430910501F184309105B4F0059791
:1018A00011F128C01092BF001092BE0023C081E049
:1018B00090E09093BF008093BE001CC088E090E051
:1018C0009093BF008093BE0015C080E490E0909399
:1018D000BF008093BE000EC080E091E09093BF00F7
:1018E0008093BE0007C080E094E09093BF00809397
:1018F000BE00000081E089835FC085E490E025E4BC
:1019000030E0F90140812A813B81F9012181242BBA
:10191000FC01208389E590E029E530E0F901408170
:101920002A813B81F9012681242BFC0120838091AF
:101930006200882F90E082309105E9F083309105B4
:101940002CF4009761F0019779F031C08630910551
:1019500001F18730910521F10497A1F028C0109280
:10196000BB001092BA0023C081E090E09093BB00CE
:101970008093BA001CC088E090E09093BB008093F5
:10198000BA0015C080E490E09093BB008093BA0049
:101990000EC080E091E09093BB008093BA0007C036
:1019A00080E094E09093BB008093BA00000081E057
:1019B000898302C01982000089810F900F900F90D7
:1019C000DF91CF910895EF92FF920F931F93CF93E2
:1019D000DF93CDB7DEB72D970FB6F894DEBF0FBEFD
:1019E000CDBF89874A875B876C877D8719821A827A
:1019F0001B821C828985882F90E08130910509F433
:101A000071C08230910509F4E6C0892B09F04DC1FF
:101A10008091BC009091BD00CC01A0E0B0E09C01A1
:101A2000AD0160E472E48FE090E00E941511DC01EA
:101A3000CB012091AF003091B0004091B1005091A6
:101A4000B200BC01CD010E944D11DA01C9019C0117
:101A5000AD018A859B85AC85BD85BC01CD010E9409
:101A60004D11DA01C9018D839E83AF83B8878D81C3
:101A70009E81AF81B88581309140A105B10528F0E4
:101A800019821A821B821C8215C120E031E040E0DD
:101A900050E08D819E81AF81B88579018A01E81A75
:101AA000F90A0A0B1B0BD801C7018093B30090936E
:101AB000B400A093B500B093B60022E530E0809169
:101AC000B3009091B400A091B500B091B600F901B7
:101AD000808381E090E0A0E0B0E089839A83AB83CB
:101AE000BC83E8C08091BE009091BF00CC01A0E013
:101AF000B0E09C01AD0160E472E48FE090E00E94F0
:101B00001511DC01CB012091AF003091B000409164
:101B1000B1005091B200BC01CD010E944D11DA011B
:101B2000C9019C01AD018A859B85AC85BD85BC0141
:101B3000CD010E944D11DA01C9018D839E83AF83CF
:101B4000B8878D819E81AF81B8850197A140B1058D
:101B500028F019821A821B821C82ACC020E030E07F
:101B600041E050E08D819E81AF81B88579018A0185
:101B7000E81AF90A0A0B1B0BD801C7018093B300BE
:101B80009093B400A093B500B093B6002DE430E07C
:101B90008091B3009091B400A091B500B091B600CF
:101BA000892F9A2FAB2FBB27F90180832CE430E0DB
:101BB0008091B3009091B400A091B500B091B600AF
:101BC000F901808381E090E0A0E0B0E089839A830E
:101BD000AB83BC836FC08091BA009091BB00CC01F5
:101BE000A0E0B0E09C01AD0160E472E48FE090E021
:101BF0000E941511DC01CB012091AF003091B000A3
:101C00004091B1005091B200BC01CD010E944D1134
:101C1000DA01C9019C01AD018A859B85AC85BD8532
:101C2000BC01CD010E944D11DA01C9018D839E8353
:101C3000AF83B8878D819E81AF81B8858130914017
:101C4000A105B10528F019821A821B821C8232C0BC
:101C500020E031E040E050E08D819E81AF81B88589
:101C600079018A01E81AF90A0A0B1B0BD801C7018E
:101C70008093B3009093B400A093B500B093B600E6
:101C800024E430E08091B3009091B400A091B500BD
:101C9000B091B600F901808381E090E0A0E0B0E06F
:101CA00089839A83AB83BC8305C019821A821B8205
:101CB0001C8200008A859B85AC85BD858093B3001E
:101CC0009093B400A093B500B093B60089812D968F
:101CD0000FB6F894DEBF0FBECDBFDF91CF911F913D
:101CE0000F91FF90EF900895CF93DF931F92CDB7A0
:101CF000DEB789838981882F90E08130910599F042
:101D000082309105E9F0892B09F027C083E590E046
:101D100023E530E0F9012081287F30916000232BFA
:101D2000FC0120831AC08EE490E02EE430E0F9013B
:101D30002081287F30916100232BFC0120830DC07E
:101D400085E490E025E430E0F9012081287F30919E
:101D50006200232BFC012083000081E00F90DF91C3
:101D6000CF910895CF93DF931F92CDB7DEB78983CC
:101D700082E590E02981FC01208300000F90DF9133
:101D8000CF910895CF93DF93CDB7DEB782E590E092
:101D9000FC018081DF91CF910895CF93DF93CDB780
:101DA000DEB74091600083E590E023E530E0F90183
:101DB0002081242BFC0120830000DF91CF91089526
:101DC000CF93DF9300D0CDB7DEB79A838983898123
:101DD0009A819093B8008093B70000000F900F9005
:101DE000DF91CF9108951F920F9200905F000F92A4
:101DF00011242F933F934F935F936F937F938F9310
:101E00009F93AF93BF93EF93FF93CF93DF93CDB7A0
:101E1000DEB78091B7009091B800892B31F08091A6
:101E2000B7009091B800FC0109958091B3009091A2
:101E3000B400A091B500B091B600AC01BD0181E045
:101E40000E94E30C0000DF91CF91FF91EF91BF91D1
:101E5000AF919F918F917F916F915F914F913F9142
:101E60002F910F9000925F000F901F901895CF93C5
:101E7000DF93CDB7DEB728970FB6F894DEBF0FBE5D
:101E8000CDBF6D837E838F8398878D819E81AF8147
:101E9000B885880F991FAA1FBB1F880F991FAA1FFB
:101EA000BB1F880F991FAA1FBB1F89839A83AB830F
:101EB000BC830BC089819A81AB81BC810D97A1093C
:101EC000B10989839A83AB83BC8389819A81AB8171
:101ED000BC81181619061A061B0664F30000289622
:101EE0000FB6F894DEBF0FBECDBFDF91CF9108953E
:101EF0000E948C0F0C946E100E94671058F00E9484
:101F0000601040F029F45F3F29F00C9457105111F4
:101F10000C94A2100C945D100E947F1068F399231A
:101F2000B1F3552391F3951B550BBB27AA276217D5
:101F30007307840738F09F5F5F4F220F331F441FE2
:101F4000AA1FA9F335D00E2E3AF0E0E832D0915016
:101F50005040E695001CCAF72BD0FE2F29D0660F03
:101F6000771F881FBB1F261737074807AB07B0E846
:101F700009F0BB0B802DBF01FF2793585F4F3AF04C
:101F80009E3F510578F00C9457100C94A2105F3FBF
:101F9000E4F3983ED4F3869577956795B795F795D2
:101FA0009F5FC9F7880F911D9695879597F90895BA
:101FB000E1E0660F771F881FBB1F62177307840756
:101FC000BA0720F0621B730B840BBA0BEE1F88F765
:101FD000E09508950E94871088F09F5798F0B92FD8
:101FE0009927B751B0F0E1F0660F771F881F991F4E
:101FF0001AF0BA95C9F714C0B13091F00E94A1103F
:10200000B1E008950C94A110672F782F8827B85F4E
:1020100039F0B93FCCF3869577956795B395D9F7A5
:102020003EF490958095709561957F4F8F4F9F4FAF
:102030000895E894F92F96EBFF2381F0121613060A
:102040001406440B9395F695879577956795579564
:102050004040FF23B9F71BC099270895882351F406
:102060009850D2F7872B762F652F542F432F322F7E
:1020700020E0B1F3121613061406440B88233AF03D
:102080009A95440F551F661F771F881FCAF755235F
:102090004AF4440F551F11F460FF04C06F5F7F4F77
:1020A0008F4F9F4F880F9695879597F9089597F9C9
:1020B0009F6780E870E060E008959FEF80EC0895EE
:1020C00000240A9416161706180609060895002417
:1020D0000A9412161306140605060895092E039491
:1020E000000C11F4882352F0BB0F40F4BF2B11F405
:1020F00060FF04C06F5F7F4F8F4F9F4F089557FD64
:102100009058440F551F59F05F3F71F04795880F65
:1021100097FB991F61F09F3F79F0879508951216FC
:1021200013061406551FF2CF4695F1DF08C01616A8
:1021300017061806991FF1CF869571056105089459
:102140000895E894BB2766277727CB0197F9089570
:102150000E94BB100C946E100E94601038F00E9418
:10216000671020F0952311F00C9457100C945D101B
:1021700011240C94A2100E947F1070F3959FC1F35C
:10218000950F50E0551F629FF001729FBB27F00D25
:10219000B11D639FAA27F00DB11DAA1F649F66277A
:1021A000B00DA11D661F829F2227B00DA11D621FC9
:1021B000739FB00DA11D621F839FA00D611D221F83
:1021C000749F3327A00D611D231F849F600D211D67
:1021D000822F762F6A2F11249F5750409AF0F1F0EA
:1021E00088234AF0EE0FFF1FBB1F661F771F881F53
:1021F00091505040A9F79E3F510580F00C94571024
:102200000C94A2105F3FE4F3983ED4F38695779543
:102210006795B795F795E7959F5FC1F7FE2B880FF8
:10222000911D9695879597F90895DB018F939F935C
:102230000E946F11BF91AF91A29F800D911DA39F2E
:10224000900DB29F900D11240895AA1BBB1B51E164
:1022500007C0AA1FBB1FA617B70710F0A61BB70B16
:10226000881F991F5A95A9F780959095BC01CD01BB
:10227000089597FB072E16F4009407D077FD09D038
:102280000E94251107FC05D03EF4909581959F4F43
:102290000895709561957F4F0895A1E21A2EAA1BAB
:1022A000BB1BFD010DC0AA1FBB1FEE1FFF1FA21706
:1022B000B307E407F50720F0A21BB30BE40BF50B03
:1022C000661F771F881F991F1A9469F7609570958C
:1022D000809590959B01AC01BD01CF0108950E94AE
:1022E0007A11A59F900DB49F900DA49F800D911D14
:1022F00011240895A29FB001B39FC001A39F700D48
:10230000811D1124911DB29F700D811D1124911DFD
:1023100008954532510520F4423010F00C94941188
:10232000FB011082CB010895BB274A3031F4992379
:1023300022F4BDE2909581959F4F0C94A011BB278C
:10234000FB015527AA27880F991FAA1FA41710F071
:10235000A41B83955051B9F7A05DAA3308F0A95D7D
:10236000A193009779F7B111B1931192CB010C941D
:10237000B911DC01FC01672F71917723E1F73297E6
:1023800004C07C916D9370836291AE17BF07C8F350
:062390000895F894FFCF50
:10239600010501000040420F000100127A00010011
:1023A60040420F000100127A00026040420F000016
:0423B60000127A0097
:00000001FF
