S01700004763634170706C69636174696F6E312E737265635B
S11300000C942A000C9449010C9447000C9447006A
S11300100C9447000C94AA010C9447000C944700DC
S11300200C9447000C9447000C9447000C94470030
S11300300C9447000C9447000C9447000C94470020
S11300400C9447000C9447000C9447000C94470010
S11300500C94470011241FBECFE5D8E0DEBFCDBF0E
S113006010E0A0E6B0E0E8E1FEE002C005900D92E9
S1130070AE37B107D9F720E0AEE7B0E001C01D927A
S1130080A339B207E1F70E9408020C940A070C9402
S113009000000E94BB0180E00E949D0081E00E945C
S11300A09D0080E00E94150181E00E9415010895E1
S11300B00E94C8010E94D9016D3330F00E94820071
S11300C084E60E94D200089581EE860F8D3160F49B
S11300D00E94940082E30E94D20064E670E080E013
S11300E090E00E94F90408956E3158F48EE10E9464
S11300F0D2000E948B0064E670E080E090E00E94F1
S1130100F904089561E080E00E94DC0061E081E090
S11301100E94DC00089560E080E00E94DC0060E062
S113012081E00E94DC00089560E080E00E94DC0031
S113013061E081E00E94DC000895CF93C82F81E044
S11301400E94F502CC2319F0C130B1F029C04FEF61
S113015061E080E00E940D024FEF64E080E00E94C5
S11301600D0240E061E080E00E944D0240E064E066
S113017080E00E944D0214C04FEF62E080E00E94D4
S11301800D024FEF68E080E00E940D0240E062E063
S113019080E00E944D0240E068E080E00E944D0251
S11301A0CF910895853630F464E170E00E940A032B
S11301B081E0089580E00895882319F08130D1F01A
S11301C032C0662361F0613071F541E080E00E9445
S11301D04D0240E064E080E00E944D0224C040E013
S11301E061E080E00E944D0241E064E080E00E9412
S11301F04D0219C0662369F06130A9F441E062E060
S113020080E00E944D0240E068E080E00E944D02E0
S11302100AC040E062E080E00E944D0241E068E0F4
S113022080E00E944D0281E00895CF93C82F82E3BD
S11302300E94D2000E94E50461E08C2F0E94DC0041
S1130240CF91089561E086E00E94890280E690E003
S11302500E94DE030E94850281E00895FC017091F2
S11302607E0060917F005091800040918100309128
S11302708200209183009091840080918500708396
S1130280618352834383348325839683878381E008
S113029008951F920F920FB60F9211242F933F933C
S11302A04F935F936F937F938F939F93AF93BF937A
S11302B0CF93DF93EF93FF938091870081110AC05E
S11302C00E94EF040E94F3041092860081E0809360
S11302D087002DC080918700813049F5C091860048
S11302E00E94F104AC2FB0E0BA2FAA27A80FB11DC9
S11302F02DE730E00E94F806DC01CB0180937E00FC
S113030090937F00A0938000B093810010928200AC
S11303101092830010928400109285000E94EB04D6
S11303201092860080E00E94EF0410928700FF91F3
S1130330EF91DF91CF91BF91AF919F918F917F9179
S11303406F915F914F913F912F910F900FBE0F903E
S11303501F9018951F920F920FB60F9211248F932E
S1130360809186008F5F809386008F910F900FBEDF
S11303700F901F9018950E9422014FEF60E880E0D3
S11303800E940D0240E064E083E00E940D020895A3
S113039041E060E880E00E944D026AE070E080E0A5
S11303A090E00E940E0540E060E880E00E944D026B
S11303B00895CF93DF93CDB7DEB728970FB6F8949F
S11303C0DEBF0FBECDBFCE0101960E942E01298152
S11303D03A814B815C816D817E818F8198850E94F9
S11303E0CB0528E23BE64EE65EE40E942A0520E0C7
S11303F03CEF45E856E40E945A060E949C05289664
S11304000FB6F894DEBF0FBECDBFDF91CF91089534
S11304100E9449000E945800FDCF8130A1F028F0CD
S11304208230F9F0833059F10895442319F04F3F95
S113043031F008958AB3609568236ABB08958AB33E
S1130440682B6ABB0895442319F04F3F31F0089597
S113045087B36095682367BB089587B3682B67BB30
S11304600895442319F04F3F31F0089584B3609503
S1130470682364BB089584B3682B64BB0895442344
S113048019F04F3F31F0089581B36095682361BB43
S1130490089581B3682B61BB08954423D1F04130A2
S11304A099F5813051F028F0823059F0833069F0A9
S11304B008958BB3682B6BBB089588B3682B68BB16
S11304C0089585B3682B65BB089582B3682B62BB1E
S11304D00895813059F028F0823069F0833081F03A
S11304E008958BB3609568236BBB089588B36095BA
S11304F0682368BB089585B36095682365BB089538
S113050082B36095682362BB08958FB780688FBFFC
S11305100895863031F08730A1F1853009F064C048
S113052060C0613081F028F06230B9F06330F9F0D6
S113053008958BB780648BBF85B78E7F85BF85B7E1
S11305408D7F85BF08958BB780648BBF85B781602D
S113055085BF85B78D7F85BF08958BB780648BBFBA
S113056085B7826085BF85B78E7F85BF08958BB7B9
S113057080648BBF85B7826085BF85B7816085BF86
S11305800895613081F028F06230B9F06330F9F0F9
S113059008958BB780688BBF85B78B7F85BF85B780
S11305A0877F85BF08958BB780688BBF85B78460CC
S11305B085BF85B7877F85BF08958BB780688BBF5C
S11305C085B7886085BF85B78B7F85BF08958BB756
S11305D080688BBF85B7886085BF85B7846085BF19
S11305E008958BB780628BBF0895813049F018F06D
S11305F0823059F0089582E790E00E94DE03089566
S113060089E690E00E94DE03089580E690E00E946F
S1130610DE030895CF93C82F8091910090919200AA
S1130620880F991F869F9001879F300D969F300DEC
S1130630112440E050E060E072E18AE790E00E941B
S1130640C706522F432F822F932FC89F9001C99F13
S1130650300D11243695279536952795ABE7B4E1EF
S11306600E94E9069695879556BD47BD8ABD9BBDF8
S1130670CF9108958F929F92AF92BF92CF92DF92C3
S1130680EF92FF92813089F120F0823009F45BC04F
S113069085C0A0918F00B0919000809089009090C7
S11306A08A00A0908B00B0908C006B01E12CF12C9F
S11306B020E432E44FE050E00E94FF06A5019401DB
S11306C00E94C706C701B6010E94C706213081E017
S11306D038074105510508F063C02195209388002F
S11306E08091880082BF81E060C0A0919100B091A8
S11306F092008090890090908A00A0908B00B09026
S11307008C006B01E12CF12C20E432E44FE050E04A
S11307100E94FF06A50194010E94C706C701B60105
S11307200E94C7062130310581E048075105D0F504
S1130730219520938800809188008CBD8091880049
S11307401DBC81E032C0A0918D00B0918E008090DC
S1130750890090908A00A0908B00B0908C006B016F
S1130760E12CF12C20E432E44FE050E00E94FF063B
S1130770A50194010E94C706C701B6010E94C706DD
S1130780213081E038074105510570F4219520930B
S113079088008091880084BD81E007C080E005C0A6
S11307A080E003C080E001C080E0FF90EF90DF9024
S11307B0CF90BF90AF909F908F9008951F93CF9349
S11307C0DF93EC018D819E81AF81B8858093890090
S11307D090938A00A0938B00B0938C008881813021
S11307E009F44BC020F0823009F497C0DDC093B700
S11307F08981892B83BF99B78C81892B89BF80918B
S11308007D008230D1F028F4882349F0813069F0EA
S1130810CDC0843011F1C8F0853039F1C7C01092D1
S1130820900010928F0011E0C6C081E090E0909398
S1130830900080938F0011E0BEC088E090E0909318
S1130840900080938F0011E0B6C080E490E0909314
S1130850900080938F0011E0AEC080E091E090930F
S1130860900080938F0011E0A6C080E094E0909304
S1130870900080938F0011E09EC09FB589818370A2
S1130880892B8FBD9EB589818871892B8EBD8FB5CB
S113089080688FBD4FEF60E283E00E940D0280917B
S11308A07C008230D1F028F4882349F0813069F04B
S11308B07FC0843011F1C8F0853039F179C01092CD
S11308C092001092910011E076C081E090E0909344
S11308D092008093910011E06EC088E090E09093C4
S11308E092008093910011E066C080E490E09093C0
S11308F092008093910011E05EC080E091E09093BB
S113090092008093910011E056C080E094E09093AF
S113091092008093910011E04EC095B58981892B96
S113092085BD99B78C81892B89BF80917B008230EA
S1130930D9F028F4882351F0813071F03BC086301F
S113094019F1873049F18430A9F516C010928E0050
S113095010928D0011E02FC081E090E090938E0002
S113096080938D0011E027C088E090E090938E0082
S113097080938D0011E01FC080E490E090938E007E
S113098080938D0011E017C080E091E090938E0079
S113099080938D0011E00FC080E094E090938E006E
S11309A080938D0011E007C010E005C011E003C082
S11309B011E001C011E06A817B8188810E943A03C1
S11309C0812FDF91CF911F91089590917C008EB576
S11309D0892B8EBD08958EB5887F8EBD089584BD04
S11309E0089584B5089590917B0085B5892B85BDC4
S11309F008959B01AC01A0E4BFE10E94FF06161616
S1130A001706180619064CF46950710981099109F1
S1130A101616170618061906BCF30895DC01CB0157
S1130A20880F991FAA1FBB1F880F991FAA1FBB1FDE
S1130A30880F991FAA1FBB1F181619061A061B0632
S1130A4044F40D97A109B109181619061A061B06D4
S1130A50C4F308950E943E050C9420060E941906D2
S1130A6058F00E94120640F029F45F3F29F00C94DC
S1130A70090651110C9454060C940F060E94310679
S1130A8068F39923B1F3552391F3951B550BBB27B9
S1130A90AA2762177307840738F09F5F5F4F220FFE
S1130AA0331F441FAA1FA9F335D00E2E3AF0E0E8F5
S1130AB032D091505040E695001CCAF72BD0FE2F3F
S1130AC029D0660F771F881FBB1F261737074807D3
S1130AD0AB07B0E809F0BB0B802DBF01FF2793588B
S1130AE05F4F3AF09E3F510578F00C9409060C9440
S1130AF054065F3FE4F3983ED4F386957795679563
S1130B00B795F7959F5FC9F7880F911D96958795BF
S1130B1097F90895E1E0660F771F881FBB1F6217DE
S1130B2073078407BA0720F0621B730B840BBA0B9C
S1130B30EE1F88F7E09508950E94390688F09F57C4
S1130B4098F0B92F9927B751B0F0E1F0660F771FED
S1130B50881F991F1AF0BA95C9F714C0B13091F0E3
S1130B600E945306B1E008950C945306672F782F22
S1130B708827B85F39F0B93FCCF3869577956795A8
S1130B80B395D9F73EF490958095709561957F4F14
S1130B908F4F9F4F0895E894F92F96EBFF2381F030
S1130BA0121613061406440B9395F69587957795BC
S1130BB0679557954040FF23B9F71BC099270895BF
S1130BC0882351F49850D2F7872B762F652F542F12
S1130BD0432F322F20E0B1F3121613061406440BF0
S1130BE088233AF09A95440F551F661F771F881F74
S1130BF0CAF755234AF4440F551F11F460FF04C08B
S1130C006F5F7F4F8F4F9F4F880F9695879597F90A
S1130C10089597F99F6780E870E060E008959FEF7A
S1130C2080EC089500240A9416161706180609067F
S1130C30089500240A94121613061406050608954E
S1130C40092E0394000C11F4882352F0BB0F40F4D6
S1130C50BF2B11F460FF04C06F5F7F4F8F4F9F4F16
S1130C60089557FD9058440F551F59F05F3F71F098
S1130C704795880F97FB991F61F09F3F79F08795FF
S1130C800895121613061406551FF2CF4695F1DF88
S1130C9008C0161617061806991FF1CF8695710518
S1130CA0610508940895E894BB2766277727CB014C
S1130CB097F908950E946D060C9420060E9412066E
S1130CC038F00E94190620F0952311F00C940906BF
S1130CD00C940F0611240C9454060E94310670F3F0
S1130CE0959FC1F3950F50E0551F629FF001729FCD
S1130CF0BB27F00DB11D639FAA27F00DB11DAA1FDC
S1130D00649F6627B00DA11D661F829F2227B00D28
S1130D10A11D621F739FB00DA11D621F839FA00DB3
S1130D20611D221F749F3327A00D611D231F849F03
S1130D30600D211D822F762F6A2F11249F5750405A
S1130D409AF0F1F088234AF0EE0FFF1FBB1F661FD5
S1130D50771F881F91505040A9F79E3F510580F09E
S1130D600C9409060C9454065F3FE4F3983ED4F3C4
S1130D70869577956795B795F795E7959F5FC1F742
S1130D80FE2B880F911D9695879597F90895A1E2FA
S1130D901A2EAA1BBB1BFD010DC0AA1FBB1FEE1FF1
S1130DA0FF1FA217B307E407F50720F0A21BB30B3C
S1130DB0E40BF50B661F771F881F991F1A9469F7B8
S1130DC060957095809590959B01AC01BD01CF0114
S1130DD00895A29FB001B39FC001A39F700D811D10
S1130DE01124911DB29F700D811D1124911D089530
S1130DF00E94E906B7FF0895821B930B08950E9491
S1130E00E906A59F900DB49F900DA49F800D911DA0
S10B0E1011240895F894FFCFAA
S1130E180200204E0100127A000112204E00001236
S1110E287A000000204E0100127A000105013C
S9030000FC
